:020000040800F2
:1000000000500020D11D0008C11B0008C31B0008C0
:10001000C51B0008C71B0008C91B00080000000022
:10002000000000000000000000000000CB1B0008E2
:10003000CD1B000800000000CF1B0008D11B0008EA
:10004000191E0008191E0008191E0008191E0008B4
:10005000191E0008191E0008191E0008191E0008A4
:10006000191E0008191E0008191E0008191E000894
:10007000191E0008191E0008191E0008191E000884
:10008000191E0008191E0008191E0008191E000874
:10009000191E0008191E0008191E0008191E000864
:1000A000191E0008191E0008191E0008D91B000897
:1000B000191E0008191E0008191E0008191E000844
:1000C000191E0008191E0008191E0008191E000834
:1000D000191E0008191E0008191E0008191E000824
:1000E000191E0008191E0008191E00080000000053
:1000F0000000000000000000000000000000000000
:0C01000000000000000000005FF808F1A3
:1001100081F0004102E000BF83F0004330B54FEAB8
:1001200041044FEA430594EA050F08BF90EA020F25
:100130001FBF54EA000C55EA020C7FEA645C7FEAB8
:10014000655C00F0E2804FEA5454D4EB5555B8BFDB
:100150006D420CDD2C4480EA020281EA030382EA4C
:10016000000083EA010180EA020281EA0303362DDE
:1001700088BF30BD11F0004F4FEA01314FF4801CB1
:100180004CEA113102D0404261EB410113F0004FC3
:100190004FEA03334CEA133302D0524263EB43037A
:1001A00094EA050F00F0A780A4F10104D5F1200E18
:1001B0000DDB02FA0EFC22FA05F2801841F1000173
:1001C00003FA0EF2801843FA05F359410EE0A5F147
:1001D00020050EF1200E012A03FA0EFC28BF4CF078
:1001E000020C43FA05F3C01851EBE37101F000452E
:1001F00007D54FF0000EDCF1000C7EEB00006EEB3B
:100200000101B1F5801F1BD3B1F5001F0CD34908C4
:100210005FEA30004FEA3C0C04F101044FEA44521B
:1002200012F5800F80F09A80BCF1004F08BF5FEAA2
:10023000500C50F1000041EB045141EA050130BD82
:100240005FEA4C0C404141EB0101013C28BFB1F594
:10025000801FE9D291F0000F04BF01460020B1FADF
:1002600081F308BF2033A3F10B03B3F120020CDAB2
:100270000C3208DD02F1140CC2F10C0201FA0CF090
:1002800021FA02F10CE002F11402D8BFC2F1200CF5
:1002900001FA02F120FA0CFCDCBF41EA0C019040AB
:1002A000E41AA2BF01EB0451294330BD6FEA0404F4
:1002B0001F3C1CDA0C340EDC04F11404C4F12002DF
:1002C00020FA04F001FA02F340EA030021FA04F3F1
:1002D00045EA030130BDC4F10C04C4F1200220FA48
:1002E00002F001FA04F340EA0300294630BD21FA86
:1002F00004F0294630BD94F0000F83F4801306BF4C
:1003000081F480110134013D4EE77FEA645C18BF3F
:100310007FEA655C29D094EA050F08BF90EA020FD6
:1003200005D054EA000C04BF1946104630BD91EACE
:10033000030F1EBF0021002030BD5FEA545C05D1D1
:100340004000494128BF41F0004130BD14F5800410
:100350003CBF01F5801130BD01F0004545F0FE4184
:1003600041F470014FF0000030BD7FEA645C1ABFB9
:10037000194610467FEA655C1CBF0B46024650EAF0
:10038000013406BF52EA033591EA030F41F400211C
:1003900030BD00BF90F0000F04BF0021704730B5A2
:1003A0004FF4806404F132044FF000054FF0000177
:1003B00050E700BF90F0000F04BF0021704730B538
:1003C0004FF4806404F1320410F0004548BF40420D
:1003D0004FF000013EE700BF42004FEAE2014FEA62
:1003E00031014FEA02701FBF12F07F4393F07F4F3D
:1003F00081F06051704732F07F4208BF704793F040
:100400007F4F04BF41F40021704730B54FF4607452
:1004100001F0004521F000411CE700BF50EA010255
:1004200008BF704730B54FF000050AE050EA0102FE
:1004300008BF704730B511F0004502D5404261EB6E
:1004400041014FF4806404F132045FEA915C3FF4AF
:10045000D8AE4FF003025FEADC0C18BF03325FEA4C
:10046000DC0C18BF033202EBDC02C2F1200300FAFD
:1004700003FC20FA02F001FA03FE40EA0E0021FA22
:1004800002F11444BDE600BF4FEA410212F500122A
:1004900015D211D56FF47873B3EB625212D94FEACB
:1004A000C12343F0004343EA505311F0004F23FAB5
:1004B00002F018BF404270474FF00000704750EA0A
:1004C000013005D111F0004008BF6FF000407047C7
:1004D0004FF00000704700BF80F0004002E000BF16
:1004E00081F0004142001FBF5FEA410392EA030F1F
:1004F0007FEA226C7FEA236C6AD04FEA1262D2EB69
:100500001363C1BFD218414048404140B8BF5B426D
:10051000192B88BF704710F0004F40F4000020F006
:100520007F4018BF404211F0004F41F4000121F01C
:100530007F4118BF494292EA030F3FD0A2F1010266
:1005400041FA03FC10EB0C00C3F1200301FA03F1A4
:1005500000F0004302D5494260EB4000B0F5000FC7
:1005600013D3B0F1807F06D340084FEA310102F186
:100570000102FE2A51D2B1F1004F40EBC25008BF38
:1005800020F0010040EA03007047490040EB000002
:10059000013A28BFB0F5000FEDD2B0FA80FCACF103
:1005A000080CB2EB0C0200FA0CF0AABF00EBC25030
:1005B00052421843BCBFD0401843704792F0000F1E
:1005C00081F4000106BF80F400000132013BB5E771
:1005D0004FEA41037FEA226C18BF7FEA236C21D0E7
:1005E00092EA030F04D092F0000F08BF084670474C
:1005F00090EA010F1CBF0020704712F07F4F04D11A
:10060000400028BF40F00040704712F100723CBF2C
:1006100000F50000704700F0004343F0FE4040F456
:10062000000070477FEA226216BF08467FEA236314
:100630000146420206BF5FEA412390EA010F40F4FF
:10064000800070474FF0000304E000BF10F000434B
:1006500048BF40425FEA000C08BF704743F0964332
:1006600001464FF000001CE050EA010208BF70474D
:100670004FF000030AE000BF50EA010208BF7047D4
:1006800011F0004302D5404261EB41015FEA010CE9
:1006900002BF84460146002043F0B64308BFA3F1E1
:1006A0008053A3F50003BCFA8CF2083AA3EBC253C3
:1006B00010DB01FA02FC634400FA02FCC2F12002E2
:1006C000BCF1004F20FA02F243EB020008BF20F019
:1006D0000100704702F1200201FA02FCC2F120027F
:1006E00050EA4C0021FA02F243EB020008BF20EA74
:1006F000DC7070474FF0FF0C1CEAD0521EBF1CEAA2
:10070000D15392EA0C0F93EA0C0F6FD01A4480EA8F
:10071000010C400218BF5FEA41211ED04FF0006378
:1007200043EA501043EA5111A0FB01310CF00040A4
:10073000B1F5000F3EBF490041EAD3715B0040EACA
:10074000010062F17F02FD2A1DD8B3F1004F40EB9A
:10075000C25008BF20F00100704790F0000F0CF06D
:10076000004C08BF49024CEA502040EA51207F3A31
:10077000C2BFD2F1FF0340EAC250704740F400000C
:100780004FF00003013A5DDC12F1190FDCBF00F0FD
:1007900000407047C2F10002410021FA02F1C2F1AB
:1007A000200200FA02FC5FEA310040F1000053EA47
:1007B0004C0308BF20EADC70704792F0000F00F095
:1007C000004C02BF400010F4000F013AF9D040EA9B
:1007D0000C0093F0000F01F0004C02BF490011F42F
:1007E000000F013BF9D041EA0C018FE70CEAD1532D
:1007F00092EA0C0F18BF93EA0C0F0AD030F0004CAD
:1008000018BF31F0004CD8D180EA010000F0004060
:10081000704790F0000F17BF90F0004F084691F01E
:10082000000F91F0004F14D092EA0C0F01D1420258
:100830000FD193EA0C0F03D14B0218BF084608D121
:1008400080EA010000F0004040F0FE4040F400006B
:10085000704740F0FE4040F4400070474FF0FF0CFE
:100860001CEAD0521EBF1CEAD15392EA0C0F93EA45
:100870000C0F69D0A2EB030280EA010C49024FEA97
:10088000402037D04FF0805343EA111143EA101350
:100890000CF000408B4238BF5B0042F17D024FF408
:1008A000000C8B4224BF5B1A40EA0C00B3EB510FE3
:1008B00024BFA3EB510340EA5C00B3EB910F24BFCC
:1008C000A3EB910340EA9C00B3EBD10F24BFA3EB51
:1008D000D10340EADC001B0118BF5FEA1C1CE0D119
:1008E000FD2A3FF650AF8B4240EBC25008BF20F0CC
:1008F000010070470CF0004C4CEA50207F32C2BF20
:10090000D2F1FF0340EAC250704740F400004FF0BC
:100910000003013A37E792F0000F00F0004C02BFED
:10092000400010F4000F013AF9D040EA0C0093F0B7
:10093000000F01F0004C02BF490011F4000F013B11
:10094000F9D041EA0C0195E70CEAD15392EA0C0F79
:1009500008D142027FF47DAF93EA0C0F7FF470AFB1
:10096000084676E793EA0C0F04D14B023FF44CAFF4
:1009700008466EE730F0004C18BF31F0004CCAD189
:1009800030F000427FF45CAF31F000437FF43CAFC5
:100990005FE700BF4FF0FF3C06E000BF4FF0010CE7
:1009A00002E000BF4FF0010C4DF804CD4FEA4002C9
:1009B0004FEA41037FEA226C18BF7FEA236C11D013
:1009C00001B052EA530C18BF90EA010F58BFB2EBC6
:1009D000030088BFC81738BF6FEAE17018BF40F046
:1009E000010070477FEA226C02D15FEA402C05D1FA
:1009F0007FEA236CE4D15FEA412CE1D05DF8040B7F
:100A0000704700BF844608466146FFE70FB5FFF711
:100A1000C9FF002848BF10F1000F0FBD4DF808EDC9
:100A2000FFF7F4FF0CBF012000205DF808FB00BFBA
:100A30004DF808EDFFF7EAFF34BF012000205DF814
:100A400008FB00BF4DF808EDFFF7E0FF94BF012061
:100A500000205DF808FB00BF4DF808EDFFF7D2FF5E
:100A600094BF012000205DF808FB00BF4DF808EDA1
:100A7000FFF7C8FF34BF012000205DF808FB00BF6E
:100A8000844641EA000313F0030349D1403A23D3DB
:100A90000B6803604B6843608B688360CB68C360FE
:100AA0000B6903614B6943618B698361CB69C361E6
:100AB0000B6A03624B6A43628B6A8362CB6AC362CE
:100AC0000B6B03634B6B43638B6B8363CB6BC363B6
:100AD00040304031403ADBD230320BD30B680360F8
:100AE0004B6843608B688360CB68C3601030103103
:100AF000103AF3D20C3205D351F8043B40F8043BD2
:100B0000043AF9D2043208D0D2071CBF11F8013BD5
:100B100000F8013B01D30B8803806046704700BF9B
:100B2000082A13D38B07B1D010F00303AED0C3F162
:100B30000403D21ADB071CBF11F8013B00F8013B8C
:100B4000A4D331F8023B20F8023B9FE7043AD9D303
:100B5000013A11F8013B00F8013BF9D20B78037020
:100B60004B7843708B7883706046704770B54FF058
:100B7000FF0C4CF4E06C1CEA11541DBF1CEA135529
:100B800094EA0C0F95EA0C0F00F0DEF82C4481EA91
:100B9000030621EA4C5123EA4C5350EA013518BFB1
:100BA00052EA033541F4801143F4801338D0A0FB9E
:100BB00002CE4FF00005E1FB02E506F00042E0FB4B
:100BC00003E54FF00006E1FB03569CF0000F18BF51
:100BD0004EF0010EA4F1FF04B6F5007F64F54074F9
:100BE00004D25FEA4E0E6D4146EB060642EAC6218C
:100BF00041EA55514FEAC52040EA5E504FEACE2EF9
:100C0000B4F1FD0C88BFBCF5E06F1ED8BEF1004FFB
:100C100008BF5FEA500E50F1000041EB045170BD77
:100C200006F0004646EA010140EA020081EA0301BB
:100C3000B4EB5C04C2BFD4EB0C0541EA045170BDB7
:100C400041F480114FF0000E013C00F3AB8014F131
:100C5000360FDEBF002001F0004170BDC4F100047A
:100C6000203C35DA0C341BDC04F11404C4F12005FB
:100C700000FA05F320FA04F001FA05F240EA020056
:100C800001F0004221F0004110EBD37021FA04F68C
:100C900042EB06015EEA430E08BF20EAD37070BD46
:100CA000C4F10C04C4F1200500FA04F320FA05F0A5
:100CB00001FA04F240EA020001F0004110EBD370A7
:100CC00041F100015EEA430E08BF20EAD37070BD17
:100CD000C4F1200500FA05F24EEA020E20FA04F3F0
:100CE00001FA05F243EA020321FA04F001F000419F
:100CF00021FA04F220EA020000EBD3705EEA430E10
:100D000008BF20EAD37070BD94F0000F0FD101F03E
:100D10000046400041EB010111F4801F08BF013C77
:100D2000F7D041EA060195F0000F18BF704703F0B5
:100D30000046520043EB030313F4801F08BF013D3C
:100D4000F7D043EA0603704794EA0C0F0CEA1355F8
:100D500018BF95EA0C0F0CD050EA410618BF52EAB2
:100D60004306D1D181EA030101F000414FF00000B8
:100D700070BD50EA410606BF1046194652EA4306C6
:100D800019D094EA0C0F02D150EA013613D195EA3A
:100D90000C0F05D152EA03361CBF104619460AD182
:100DA00081EA030101F0004141F0FE4141F470018C
:100DB0004FF0000070BD41F0FE4141F4780170BD7C
:100DC00070B54FF0FF0C4CF4E06C1CEA11541DBFE1
:100DD0001CEA135594EA0C0F95EA0C0F00F0A7F8E3
:100DE000A4EB050481EA030E52EA03354FEA013110
:100DF00000F088804FEA03334FF0805545EA131323
:100E000043EA12634FEA022245EA111545EA1065EA
:100E10004FEA00260EF000419D4208BF964244F181
:100E2000FD0404F5407402D25B084FEA3202B61AA0
:100E300065EB03055B084FEA32024FF480104FF474
:100E4000002CB6EB020E75EB030E22BFB61A7546E8
:100E500040EA0C005B084FEA3202B6EB020E75EB7B
:100E6000030E22BFB61A754640EA5C005B084FEAE3
:100E70003202B6EB020E75EB030E22BFB61A7546B0
:100E800040EA9C005B084FEA3202B6EB020E75EBBB
:100E9000030E22BFB61A754640EADC0055EA060E7C
:100EA00018D04FEA051545EA16754FEA06164FEABF
:100EB000C30343EA52734FEAC2025FEA1C1CC0D16B
:100EC00011F4801F0BD141EA00014FF000004FF0F8
:100ED000004CB6E711F4801F04BF01430020B4F1B9
:100EE000FD0C88BFBCF5E06F3FF6AFAEB5EB030C71
:100EF00004BFB6EB020C5FEA500C50F1000041EB6E
:100F0000045170BD0EF0004E4EEA113114EB5C043A
:100F1000C2BFD4EB0C0541EA045170BD41F480110D
:100F20004FF0000E013C90E645EA060E8DE60CEA15
:100F3000135594EA0C0F08BF95EA0C0F3FF43BAF32
:100F400094EA0C0F0AD150EA01347FF434AF95EAE9
:100F50000C0F7FF425AF104619462CE795EA0C0FCD
:100F600006D152EA03353FF4FDAE1046194622E79A
:100F700050EA410618BF52EA43067FF4C5AE50EA74
:100F800041047FF40DAF52EA43057FF4EBAE12E764
:100F90004FF0FF3C06E000BF4FF0010C02E000BF45
:100FA0004FF0010C4DF804CD4FEA410C7FEA6C5C28
:100FB0004FEA430C18BF7FEA6C5C1BD001B050EACB
:100FC000410C0CBF52EA430C91EA030F02BF90EAB6
:100FD000020F0020704710F1000F91EA030F58BF75
:100FE000994208BF90422CBFD8176FEAE37040F0D7
:100FF000010070474FEA410C7FEA6C5C02D150EA75
:10100000013C07D14FEA430C7FEA6C5CD6D152EA2F
:10101000033CD3D05DF8040B704700BF84461046F4
:1010200062468C461946634600E000BF01B5FFF7F3
:10103000B7FF002848BF10F1000F01BD4DF808EDC3
:10104000FFF7F4FF0CBF012000205DF808FB00BF94
:101050004DF808EDFFF7EAFF34BF012000205DF8EE
:1010600008FB00BF4DF808EDFFF7E0FF94BF01203B
:1010700000205DF808FB00BF4DF808EDFFF7CEFF3C
:1010800094BF012000205DF808FB00BF4DF808ED7B
:10109000FFF7C4FF34BF012000205DF808FB00BF4C
:1010A0004FEA410C7FEA6C5C02D150EA013C0AD164
:1010B0004FEA430C7FEA6C5C02D152EA033C02D156
:1010C0004FF0000070474FF0010070470348044B99
:1010D000834202D0034B03B1184770470407002036
:1010E00004070020000000000548064B1B1AD90F1A
:1010F00001EBA301491002D0034B03B1184770471D
:1011000004070020040700200000000010B5064C72
:10111000237843B9FFF7DAFF044B13B10448AFF368
:1011200000800123237010BD040700200000000090
:1011300058A0000808B5054B1BB105490548AFF399
:101140000080BDE80840FFF7CFBF00BF00000000EF
:101150000807002058A0000808B5024B186001F0ED
:10116000A3F908BD2407002008B5034B186808B18F
:1011700001F05CF808BD00BF24070020164B1B6877
:1011800043B370B50024264605E0134B186801F000
:1011900071F90134E4B2114B1D7BA5420ED90E4DFD
:1011A000286801F043F80A21286800F095FE00281D
:1011B000EBD1286800F052FF0644E6E73046FFF71F
:1011C00041FA04462846FFF741FA01462046FFF758
:1011D00045FB70BD0020704724070020040000205C
:1011E00038B5FFF7CBFF01460A4D2868FFF782FAB2
:1011F00004466868FFF726FA01462046FFF72EFBF3
:10120000054B1968FFF776FA044B1968FFF76AF97E
:1012100038BD00BF0400002000000020200700208F
:1012200008B5FFF7DDFF0249FFF718FB08BD00BF57
:10123000D7A3903F00B583B002460B464FF0FF3175
:1012400000917821024801F0ABFD03B05DF804FB8A
:10125000140C002008B5034B587002211846FFF704
:10126000E9FF08BDB007002008B54FF480620021F7
:10127000014802F0D9FF08BDB407002038B5104B73
:1012800040221A70002418E0A4F15000C0B2FFF709
:10129000E1FF0220FFF7DEFF1020FFF7DBFF094D23
:1012A0008022094901EBC4112846FFF7E9FB81219F
:1012B000681EFFF7BFFF0134E4B2072CE4D938BD44
:1012C0002C0700202D070020B407002008B5AE2011
:1012D000FFF7C0FF0220FFF7BDFF1020FFF7BAFFA6
:1012E0004020FFF7B7FFB020FFF7B4FF8120FFF7E2
:1012F000B1FFCF20FFF7AEFFA120FFF7ABFFA62085
:10130000FFF7A8FFA820FFF7A5FF3F20FFF7A2FFE8
:10131000AD20FFF79FFF8B20FFF79CFF3320FFF7E7
:1013200099FFC820FFF796FFD320FFF793FF002017
:10133000FFF790FFD520FFF78DFFC020FFF78AFF52
:10134000D920FFF787FF1F20FFF784FFDA20FFF780
:1013500081FF1220FFF77EFFDB20FFF77BFF40209D
:10136000FFF778FFFFF780FFFFF788FFAF20FFF759
:1013700071FF08BD30B59DF8104007282FD811F037
:10138000800F2CD10CB1D243D2B29DF80C40013465
:10139000FF2505FA04F464B252B244EA020CC3F128
:1013A000080E45FA0EF54CEA050C5FFA8CFC0C4D64
:1013B00085F800C00B4B03EBC010435C0CEA030C38
:1013C00000F801C022EA04036FF0FF0242FA0EF2B5
:1013D0001340DBB22B704CEA030C00F801C030BDA7
:1013E00028070020B40700202DE9F04383B006460B
:1013F00090461C469DF82890CF0801F007052B4425
:10140000082B1EDDAA40CDF80490072300932B463D
:10141000D2B201463846FFF7ADFFC5F1080248FADF
:1014200002F22C44E4B2CDF80490093CE4B20094FA
:101430000023D2B23146781CFFF79CFF03B0BDE811
:10144000F083AA402C44E4B2CDF80490013CE4B20D
:1014500000942B46D2B201463846FFF78BFFEDE7EA
:101460002DE9F04182B0064615469846CF0801F0B6
:101470000704A2400193072300932346D2B20146FA
:101480003846FFF777FF14B902B0BDE8F081C4F128
:10149000080345FA03F2CDF80480013CE4B200945D
:1014A0000023D2B23146781CFFF764FFECE72DE948
:1014B000F04F85B08046894692461E469DF83830EA
:1014C0009DF83CB0DF0803F0070202920025039369
:1014D00012E006FB045209EBC40105EB08005B4671
:1014E0001AF80220C9B2C0B2FFF7BAFF0134E4B261
:1014F000BC42EED30135EDB2B54201D20024F7E78C
:10150000039B029ABAB106FB07F700241D4610E0C0
:101510003A1925F00701494404EB0800CDF800B062
:10152000029B1AF80220C9B2C0B2FFF75DFF013476
:10153000E4B2B442ECD305B0BDE8F08F70B582B030
:101540005D68203A1C7804F1070C4FEAEC0C5B78DC
:1015500003FB0CFC9DF81860019600940CFB0252F2
:10156000FFF7A5FF02B070BD2DE9F04182B005463E
:101570000F4614461E469DF820800AE0CDF80080F4
:10158000334639462846FFF7D9FF70782844C5B25C
:1015900001342278002AF1D102B0BDE8F0810000C8
:1015A00070B58AB005460E4610461C460A2B00D977
:1015B0000A24FEF711FFCDE900012346074A202146
:1015C00002A802F0A3FD9DF83C3000930E9B02AAF6
:1015D00031462846FFF7C8FF0AB070BDA0A2000838
:1015E000054B18604268054B5A60054B00221A6093
:1015F0005A609A601A737047E00B0020C00B0020FD
:10160000D00B002008B5064B186838B1082102F04D
:10161000B1FB0C21024B186802F0ACFB08BD00BF07
:10162000E00B002010B5082102F011F90E4B1860F4
:101630000E4B1B689BB10C490B680C4A10681B1AB7
:1016400009681268914205D2074B1B68074A126865
:101650009B1A013B064C236000F024FCA060024B67
:101660001A68024B1A6010BDB80B0020BC0B00209A
:10167000D00B002008B50C2102F0E9F80C4B1860E3
:101680000C4B1B6893B10A490B680A4A10681B1A75
:1016900009681268914205D2054B1B68054A126819
:1016A0009B1A013B044A53600123137308BD00BF1A
:1016B000B40B0020B80B0020D00B002038B50D4B28
:1016C0001C68A4B10C4B5868FEF7BCFF4FF07E516C
:1016D000FEF708FF01460948FFF7C0F80546204617
:1016E000FEF7B0FF01462846FFF7B8F838BD0020E6
:1016F000FCE700BFD00B0020C00B00204054894CF9
:1017000038B50A4B1C6874B15868FEF79BFF08494E
:10171000FEF7F0FF05462046FEF794FF01462846F7
:10172000FFF79CF838BD0020FCE700BFD00B00207D
:101730000000C84200B585B00023019302930393D3
:101740001148124A026083600122027303754FF44C
:101750006021C1614360026100F008FE68B90323A3
:101760000193012302930023039301A9064800F08B
:1017700079FC28B905B05DF804FB00F02DF9EEE71F
:1017800000F02AF9F6E700BFE40B00200024014036
:1017900000B587B000230293039304930593026876
:1017A000114B9A4202D007B05DF804FB03F56C437D
:1017B0009A6942F400729A619A6902F40072009286
:1017C000009A9A6942F004029A619B6903F004034B
:1017D0000193019B082302930323039302A9034867
:1017E00000F05AFFDFE700BF00240140000801407D
:1017F00030B589B0002404940594069407941D4BD9
:101800009A6942F010029A619A6902F010020092FD
:10181000009A9A6942F020029A619A6902F02002C5
:101820000192019A9A6942F004029A619A6902F05F
:1018300004020292029A9A6942F008029A619B6934
:1018400003F008030393039B0B4D22464FF4005112
:10185000284601F02FF84FF4005304930123059319
:1018600006940223079304A9284600F015FF09B047
:1018700030BD00BF001002400010014008B50B4809
:101880000B4B03600B4B436000238360C3604FF43A
:101890008042026143618361C361036201F0A2F986
:1018A00000B908BD00F098F8FBE700BF140C002059
:1018B00000540040801A060010B586B00023029341
:1018C0000393049305930268154B9A4201D006B026
:1018D00010BD144CA36943F00803A361A36903F08E
:1018E00008030093009B4FF4407302931223039369
:1018F0000323059302A90C4800F0CEFE0B4A53685F
:1019000043F0E06343F002035360E36943F40013E0
:10191000E361E36903F400130193019BD7E700BF80
:101920000054004000100240000C01400000014043
:1019300010B5FFF767FEFFF7C1FE04461049FFF739
:1019400077F848B10F4B00221A700F492046FFF775
:101950008DF880B9204610BD09492046FFF786F86A
:101960000028F7D006492046FEF778FF0446054BCD
:1019700001221A70EEE7034B02221A70EAE700BF59
:1019800000007A44680C00200024744908B5FFF771
:1019900039FEFFF7B5FE08BD08B5FFF7E5FBFFF719
:1019A0003FFC0249FEF7A6FE08BD00BF00007A44D6
:1019B00008B50268074B9A4200D008BD037F042B8C
:1019C00004D0082BF9D1FFF755FEF6E7FFF72AFE02
:1019D000F3E700BF002C014072B6FEE700B595B0FA
:1019E000282200210DEB020002F01EFC00230593CB
:1019F0000693079308930993019302930393049327
:101A000001220A924FF480330B930E92022211921C
:101A100012934FF4E01313930AA801F093FAC8B994
:101A20000F23059302210691002307934FF4806250
:101A30000892099305A801F0B7FC68B90223019345
:101A40004FF40043039301A801F08AFD30B915B0AB
:101A50005DF804FBFFF7C0FFFFF7BEFFFFF7BCFF19
:101A600000B583B000F000FAFFF7B8FFFFF7C0FE43
:101A7000FFF704FF00F018F9FFF75CFE142000F0F8
:101A800017FA3448FFF7ACFDFFF720FCFFF7ECFB3B
:101A90003148FFF761FBFFF7E7FB304D002400946E
:101AA0002B462F4A21462046FFF75EFDFFF740FFF9
:101AB000024601940095022321461E20FFF770FD87
:101AC000284B197800942B46274A52F821202146AA
:101AD0005020FFF749FDC82000F0EAF900942B469A
:101AE000224A16212046FFF73FFDC82000F0E0F90A
:101AF000FFF74CFF024601940095022316211E2099
:101B0000FFF74EFD00942B46194A16215020FFF78F
:101B10002BFDC82000F0CCF900942B46154A2C214F
:101B20002046FFF721FDC82000F0C2F9FFF734FF7F
:101B300002460194009502232C211E20FFF730FD60
:101B400000942B460C4A2C215020FFF70DFDFFF787
:101B500095FBA0E7700C0020E40B002070A00008AB
:101B6000A8A20008680C002014000020B0A2000801
:101B7000B8A20008BCA20008C4A2000882B00E4BA4
:101B80009A6942F001029A619A6902F00102009298
:101B9000009ADA6942F08052DA61DB6903F080531F
:101BA0000193019B054A536823F0E06343F00073FF
:101BB000536002B0704700BF0010024000000140B7
:101BC000FEE7FEE7FEE7FEE7FEE770477047704777
:101BD00008B500F05BF908BD08B5024801F054FEF5
:101BE00008BD00BF700C00200120704708B502F04E
:101BF000BFFB162303604FF0FF3008BD08B54FF060
:101C0000FF31FFF7F3FFFEE770B50C4616460025DF
:101C100006E0AFF30080214601F8010B01350C46C8
:101C2000B542F6DB304670BD70B50C461646002551
:101C300004E014F8010BAFF300800135B542F8DB86
:101C4000304670BD4FF0FF3070474FF400534B608B
:101C500000207047012070470020704710B50346F0
:101C60000C4A0D490D48006840B10C480068034417
:101C7000521A934206D8094A136010BD0748084C0F
:101C80000460F2E702F074FB0C2303604FF0FF30B6
:101C9000F3E700BF00500020000400006C0C00209F
:101CA000D00F00207047000000B58BB000230693D2
:101CB0000793089309930493059300930193029368
:101CC00003932648264A02604722426083604FF60B
:101CD000FF72C26003614361836101F0C7FE58BBBC
:101CE0004FF48053069306A91C4801F0B5FF30BBA2
:101CF0001A4801F0E7FE28BB00230493059304A9CA
:101D0000164802F0DBF800BB002300930122019289
:101D10000293039308226946104801F02BFFB8B9DB
:101D20000223009301930C2269460C4801F022FF24
:101D300088B90BB05DF804FBFFF74EFED0E7FFF764
:101D40004BFED5E7FFF748FED6E7FFF745FEDBE79A
:101D5000FFF742FEE4E7FFF73FFEEAE7700C0020E2
:101D6000002C014000B587B0002302930393049335
:101D700005930268144B9A4202D007B05DF804FB49
:101D800003F564439A6942F400629A619A6902F425
:101D900000620092009A9A6942F004029A619B697B
:101DA00003F004030193019B4FF48063029302A9A3
:101DB000064800F071FC002211461B2000F03AFC9E
:101DC0001B2000F047FCD8E7002C01400008014030
:101DD000FFF768FF0B480C490C4A002302E0D45877
:101DE000C4500433C4188C42F9D3094A094C002367
:101DF00001E013600432A242FBD302F0BFFAFFF706
:101E00002FFE7047000000200407002010A70008E4
:101E100004070020D00F0020FEE7000010B50446A4
:101E20000E4B1A784FF47A73B3FBF2F30C4A106836
:101E3000B0FBF3F000F01CFC68B90F2C01D90120B5
:101E40000AE0002221464FF0FF3000F0F3FB054B83
:101E50001C60002000E0012010BD00BF2400002015
:101E6000200000202800002008B5074A136843F02E
:101E700010031360032000F0CBFB0F20FFF7CEFF11
:101E8000FFF77CFE002008BD00200240034A1168D5
:101E9000034B1B780B441360704700BFB80C002045
:101EA00024000020014B1868704700BFB80C0020C8
:101EB00038B50446FFF7F6FF0546B4F1FF3F02D000
:101EC000044B1B781C44FFF7EDFF401BA042FAD3E4
:101ED00038BD00BF24000020F0B583B005460C4695
:101EE00000230193FFF7DEFF2B689A6812F4807FCE
:101EF00023D107465A6812F4807F03D1DB6A13F4BA
:101F0000700F29D0504B1E68022001F0B5FBB6FBC4
:101F1000F0F62B6819694D4A114236D1D96802F1A1
:101F20005C42114231D11969494A114240D1DA6803
:101F3000484B1A423ED0292341E0AB6A43F02003CC
:101F4000AB62002385F82430012003B0F0BD2B687C
:101F50001B6813F0020F0FD02B681B6813F0020FE1
:101F60004FD1B4F1FF3FF7D0002CF0D0FFF79AFF2C
:101F7000C31BA342F0D9EAE7AB6A43F00403AB62A8
:101F8000002385F824300320DFE71969304A114225
:101F900004D1D96802F16E4211420DD019692E4A5E
:101FA0000A405AB9DA682C4B13405BB1FC2306E0B7
:101FB000292304E0142302E0542300E0FC2303FB64
:101FC00006F607E05423FAE7019BB34210D3019BC6
:101FD00001330193019BB34213D2B4F1FF3FF6D01A
:101FE000002CF1D0FFF75EFFC01BA042EFD9EBE75A
:101FF000AB6A43F00403AB62002385F8243003206E
:10200000A3E72B686FF012021A60AB6A43F4007307
:10201000AB622B689B6803F46023B3F5602F01D09B
:10202000002092E7287B60B9AB6A23F48073AB622F
:10203000AB6A13F4805F88D1AB6A43F00103AB62F3
:1020400083E7002081E700BF20000020244992247C
:102050009224491292244900499224000368D86CC2
:102060007047000030B482B00022019290F8242022
:10207000012A00F08F800346012280F824204A685C
:10208000062A2DD80468606B02EB8202053A4FF0F5
:102090001F0C0CFA02FC20EA0C000D6805FA02F293
:1020A000024362630A68092A38D91C68E06802EBB7
:1020B00042021E3A4FF0070C0CFA02FC20EA0C0018
:1020C0008D6805FA02F20243E2600A68103A012ABA
:1020D00034D90020002283F8242002B030BC70479D
:1020E0000C2A0DD80568286B02EB8202233A1F24C4
:1020F000944020EA04000C68944020432863D1E710
:102100000568E86A02EB8202413A1F24944020EA03
:1021100004000C6894402043E862C3E71C6820690F
:1021200002EB42024FF0070C0CFA02FC20EA0C0012
:102130008D6805FA02F202432261C6E71A68164862
:10214000824205D09A6A42F020029A620120C1E7D9
:10215000906810F4000F1BD1906840F4000090606C
:102160000A68102A01D00020B4E70C4A12680C4912
:10217000A1FB0212920C02EB82025200019202E0D9
:10218000019A013A0192019A002AF9D10020A1E7AF
:1021900000209FE70220A0E700240140200000204B
:1021A00083DE1B4330B583B00023019303689A6834
:1021B00012F0010F33D104469A6842F001029A608E
:1021C000184B1B68184AA2FB03239B0C019302E0E7
:1021D000019B013B0193019B002BF9D1FFF762FEAC
:1021E000054623689B6813F0010F16D1FFF75AFECE
:1021F000431B022BF5D923689B6813F0010FF0D124
:10220000A36A43F01003A362E36A43F00103E362AD
:10221000002384F82430012002E0002000E00020A8
:1022200003B030BD2000002083DE1B4390F8243033
:10223000012B68D010B50446012380F82430FFF745
:10224000B1FF00285BD1A36A23F4407323F001039C
:1022500043F48073A36223682C4A934227D0A26A76
:1022600022F48012A2625A6812F4806F05D0A26A2A
:1022700022F4405242F48052A262A26A12F4805FB9
:102280002BD0E26A22F00602E262002284F82420C7
:102290006FF002021A6023689A6802F46022B2F5B5
:1022A000602F1DD09A6842F480129A602AE0A2F54D
:1022B0008062526812F4702FD1D0A26A42F4801268
:1022C000A262134A526812F4806FD6D0A26A22F436
:1022D000405242F48052A262CFE70022E262D4E789
:1022E0000A4A934204D09A6842F4A0029A6009E034
:1022F000A2F58062526812F4702FD3D1F3E7002365
:1023000084F8243010BD0220704700BF002801402F
:102310000024014038B503689A6812F0010F01D11A
:10232000002038BD04469A6822F001029A60FFF747
:10233000B9FD054623689B6813F0010F13D0FFF722
:10234000B1FD431B022BF5D923689B6813F0010FE5
:10235000F0D0A36A43F01003A362E36A43F00103E1
:10236000E3620120DDE70020DBE7000000287BD0EE
:1023700070B50446836A002B4DD02046FFF7CAFF94
:10238000A36A13F0100369D1002867D1A26A22F46E
:10239000885222F0020242F00202A2626268E169FF
:1023A0000A43217B42EA4102A568B5F5807F02D04D
:1023B000012D36D01D46267D012E35D02668716848
:1023C00021F46941294371602568AE68274931408D
:1023D0001143A960A168B1F5807F01D0012902D124
:1023E0002369013B1B052568E96A21F470010B4351
:1023F000EB62236899681E4B0B409A4225D0A36A72
:1024000023F0120343F01003A362E36A43F00103D5
:10241000E362012027E0C36280F82430FFF7B8F9B7
:10242000ABE74FF48075C6E731B9A169013945EAD8
:10243000413141F40065C1E7A16A41F02001A16288
:10244000E16A41F00101E162B8E70023E362A36AB7
:1024500023F0030343F00103A36204E0A36A43F003
:102460001003A362012070BD01207047FDF7E1FF5A
:10247000FE0E1FFF90F82430012B13D010B5044638
:10248000012380F82430FFF745FF38B9A36A23F40D
:10249000885323F0010343F00103A362002384F86F
:1024A000243010BD0220704770B582B00023019324
:1024B00090F82430012B72D00446012380F8243098
:1024C000FFF728FF2046FFF76DFE054628B10023E1
:1024D00084F82430284602B070BDA36A23F48853E0
:1024E00023F0020343F00203A3622E4B1E68022076
:1024F00001F0C2F8B6FBF0F67600019602E0019B0F
:10250000013B0193019B002BF9D12268936843F0B2
:1025100008039360FFF7C6FC064623689A6812F02A
:10252000080F14D0FFF7BEFC801B0A28F5D92368DA
:102530009B6813F0080FF0D0A36A23F0120343F056
:102540001003A362002384F824300125C2E79A68AF
:1025500042F004029A60FFF7A5FC064623689B68D8
:1025600013F0040F14D0FFF79DFC801B0A28F5D947
:1025700023689B6813F0040FF0D0A36A23F01203C2
:1025800043F01003A362002384F824300125A1E75F
:10259000A36A23F0030343F00103A36297E7022534
:1025A00098E700BF20000020002808DB0901C9B21D
:1025B00000F1604000F5614080F80013704700F0C2
:1025C0000F000901C9B2014B1954704714ED00E026
:1025D00000B500F00700C0F1070CBCF1040F28BFE4
:1025E0004FF0040C031D062B0FD9C31E4FF0FF3E06
:1025F0000EFA0CF021EA000199400EFA03FE22EADD
:102600000E0241EA02005DF804FB0023EEE7000041
:10261000074AD36823F4E0631B041B0C000200F498
:10262000E060034343F0BF6343F40033D36070477B
:1026300000ED00E010B50446054BD868C0F3022059
:10264000FFF7C6FF01462046FFF7AEFF10BD00BFF3
:1026500000ED00E0002807DB00F01F024009012325
:102660009340024A42F82030704700BF00E100E08A
:102670000138B0F1807F0BD24FF0E0235861054A5A
:10268000F02182F823100020986107221A61704718
:102690000120704700ED00E070B582B00024A44630
:1026A000A1E07E4DAB4214D00CD8A5F58015AB420D
:1026B0000FD005F57025AB420BD0A5F58015AB42C8
:1026C00010D106E0764DAB4203D005F58035AB4224
:1026D00008D18B68002B50D0012B49D042610824CF
:1026E00000E0CC68BEF1FF0F49D806464FEA8C02E5
:1026F00033680F25954023EA050304FA02F21343D9
:1027000033604B6813F0805F6BD0664B9A6942F080
:1027100001029A619B6903F001030193019B4FEA57
:102720009C02951C604B53F825600CF00305AD002E
:102730000F23AB4026EA03065C4B984226D003F5F4
:102740008063984200F08C8003F58063984200F02B
:10275000898003F58063984216D0042317E0CC6883
:102760000434BFE7CC680834BCE7CC680C34B9E764
:1027700002610824B6E70024B4E70424B2E7061D8A
:10278000ACF108029200B3E7032300E00023AB4062
:1027900033430232444D45F822304B6813F4801F16
:1027A00062D0434A936843EA0E0393604B6813F484
:1027B000001F5FD03E4AD36843EA0E03D3604B68E4
:1027C00013F4003F5CD03A4A536843EA0E03536067
:1027D0004B6813F4803F59D0354A136843EA0E031F
:1027E00013600CF1010C0B6833FA0CF254D0012287
:1027F00002FA0CF203EA020E32EA0303F1D14B684B
:10280000122B3FF64EAF122B3FF66CAF01A555F8D9
:1028100023F000BFD3260008E32600086527000840
:1028200077270008E5260008E5260008E5260008C9
:10283000E5260008E5260008E5260008E52600084C
:10284000E5260008E5260008E5260008E52600083C
:10285000E5260008E52600085F2700086B2700082A
:10286000012394E7022392E7114A936823EA0E03B7
:1028700093609BE70E4AD36823EA0E03D3609EE77A
:102880000B4A536823EA0E035360A1E7084A136812
:1028900023EA0E031360A4E702B070BD000022100B
:1028A000000031100010024000000140000801400B
:1028B000000401400AB101617047090401617047D9
:1028C00003685A6912F4806F01D1002070476FF4D9
:1028D00080625A6100230363202280F83D2080F843
:1028E0003E30026C42F00402026480F83C30012069
:1028F00070472DE9F04106460C46174698463BE0E6
:10290000FFF7D0FA069BC01A404502D8B8F1000F75
:1029100032D1012D18D033689B6924EA03039BB29E
:10292000B3FA83F35B099F4226D10023336320224D
:1029300086F83D2086F83E30326C42F02002326448
:1029400086F83C30012027E033685B6924EA030302
:102950009BB2B3FA83F35B09E5E733685B6924EA6A
:10296000030C1FFA8CFCBCFA8CFC4FEA5C1C67451C
:1029700011D1B8F1FF3FC3D1C4F30745012DECD00D
:1029800033689B6924EA030C1FFA8CFCBCFA8CFCAC
:102990004FEA5C1CEBE70020BDE8F0812DE9F8432D
:1029A00005460E469046994653E01A6842F4007276
:1029B0001A602B686FF480625A6100232B63202217
:1029C00085F83D2085F83E302A6C42F004022A64E6
:1029D00085F83C3001204AE0FFF764FAA0EB0900DB
:1029E000404502D8B8F1000F33D1012F17D02B6822
:1029F0009B6926EA03039BB2003B18BF012343B344
:102A000000232B63202285F83D2085F83E302A6C78
:102A100042F020022A6485F83C30012027E02B6830
:102A20005B6926EA03039BB2003B18BF0123E6E77C
:102A30002B689C6926EA0404A4B2003C18BF012458
:102A4000A4B12B685A6912F4806FAED1B8F1FF3F80
:102A5000C2D1C6F30747012FEAD12B685C6926EA89
:102A60000404A4B2003C18BF0124E9E70020BDE83B
:102A7000F8830000F0B583B004460D4616461F46A5
:102A8000C36A082B0DD0012B0BD013F5803F08D063
:102A9000036B122B0AD10268136843F4807313602E
:102AA00004E02268136843F4807313600097334690
:102AB00000224FF001112046FFF71BFF80B9236968
:102AC000B3F5804F16D1236805F0FE051D613B4626
:102AD000324613492046FFF761FFF8B903B0F0BD55
:102AE00023681B6813F4807F02D04FF400732364C3
:102AF0000320F3E7EB11226803F0060343F0F00331
:102B000013613B46324607492046FFF747FF18B995
:102B10002368EDB21D61DAE70120DFE70120DDE780
:102B2000020001000800010070B504460D4616467B
:102B300023685B6913F0800F21D12046FFF7C0FEA8
:102B4000F8B9B5F1FF3FF3D0FFF7ACF9801BA8420D
:102B500001D8002DECD123685B6913F0800FE7D119
:102B600000232363202284F83D2084F83E30226C29
:102B700042F02002226484F83C30012000E0002072
:102B800070BD0120FCE770B504460D46164623686B
:102B90005B6913F0040F21D12046FFF791FEF8B9CD
:102BA000B5F1FF3FF3D0FFF77DF9801BA84201D8B4
:102BB000002DECD123685B6913F0040FE7D10023EB
:102BC0002363202284F83D2084F83E30226C42F0BA
:102BD0002002226484F83C30012000E0002070BD17
:102BE0000120FCE7002800F0CC8070B5044690F886
:102BF0003D30002B77D0242384F83D3022681368C1
:102C000023F0010313602268136843F40043136048
:102C10002268136823F40043136000F081FC6268AB
:102C20005A4B9A4264D85A4B98428CBF00230123D6
:102C3000002B40F0A8805749A1FB00318B0C256880
:102C40006A6822F03F0242EA91426A6021680A6A99
:102C500022F03F0266684D4DAE424FD80133134318
:102C60000B622168CA6922F44F4222F0FF026568B4
:102C7000464B9D424CD8431E6D00B3FBF5F3013328
:102C800040F6FC70034278D0C3F30B031A43CA61C9
:102C900021680B6823F0C003E269206A02431343F2
:102CA0000B6021688B6823F4034323F0FF03226940
:102CB000E068024313438B602168CB6823F0FF0375
:102CC0006269A06902431343CB602268136843F032
:102CD0000103136000202064202384F83D3020632A
:102CE00084F83E0070BD80F83C30FEF7E5FD82E7D9
:102CF000294B98428CBF0023012399E74FF4967526
:102D000005FB03F3254DA5FB03539B090133A6E700
:102D1000A668BEB9431E05EB450CB3FBFCF30133BB
:102D2000C3F30B03B3FA83F35B0943BBC6B9431E7A
:102D300005EB4505B3FBF5F30133C3F30B0343F494
:102D40000043A3E7431E05EB850C0CEB8C0CB3FB97
:102D5000FCF30133C3F30B03B3FA83F35B09E4E73A
:102D6000431E05EB850505EB8505B3FBF5F3013344
:102D7000C3F30B0343F4404388E7042386E70123AE
:102D800084E7012070470120ACE700BFA086010066
:102D90007F841E0083DE1B43FF083D00D34D62107D
:102DA0002DE9F04385B004460F46914698460C9EA7
:102DB000FFF778F8054694F83D00C0B2202804D00B
:102DC0000227384605B0BDE8F0830095192301229B
:102DD0004F492046FFF78DFD002840F0928094F87F
:102DE0003C30012B00F08F80012384F83C302368B5
:102DF0001A6812F0010F03D11A6842F001021A603A
:102E00002268136823F400631360212384F83D30A3
:102E1000102384F83E3000232364C4F82490A4F8DF
:102E20002A80638D23853B4BE3622B46324639462D
:102E30002046FFF71FFE0746002866D100230393B4
:102E400023685A6903929B690393039B11E0236CE7
:102E5000042B01D00127B4E72268136843F4007300
:102E60001360F7E72A4631462046FFF78CFE00281C
:102E70002ED1238D002B36D02A4631462046FFF72F
:102E800053FE0028E3D1626A236812781A61606AEF
:102E9000431C6362618D89B2013989B26185238DDA
:102EA000013B9BB223852268516911F0040FD9D0F0
:102EB000002BD7D043781361636A01336362638D5B
:102EC0009BB2013B9BB26385238D013B2385C9E700
:102ED000236C042B01D0012773E72268136843F4A5
:102EE00000731360F7E72268136843F400731360FC
:102EF000202384F83D30002384F83E3084F83C30B1
:102F00005FE702275DE702275BE7012759E700BF7C
:102F1000020010000000FFFF82B0084B1B68084A47
:102F2000A2FB03235B0A00FB03F3019300BF019B99
:102F30005A1E0192002BF9D102B0704720000020E8
:102F4000D34D6210002800F0F18170B582B00446C4
:102F5000036813F0010F2CD0994B5B6803F00C034E
:102F6000042B1DD0964B5B6803F00C03082B12D08A
:102F70006368B3F5803F41D0002B55D103F1804306
:102F800003F504331A6822F480321A601A6822F4B6
:102F900080221A6037E08A4B5B6813F4803FE7D0E9
:102FA000874B1B6813F4003F03D06368002B00F0CD
:102FB000BF81236813F0020F75D0814B5B6813F05B
:102FC0000C0F5FD07E4B5B6803F00C03082B54D0D2
:102FD0002369002B00F08A807A4B01221A60FEF7E9
:102FE00061FF0546764B1B6813F0020F75D1FEF7A3
:102FF00059FF401B0228F5D903209EE1704A13684F
:1030000043F480331360636843B3FEF74BFF054618
:103010006B4B1B6813F4003FCBD1FEF743FF401B03
:103020006428F5D9032088E1B3F5A02F09D0644BBB
:103030001A6822F480321A601A6822F480221A6018
:10304000E1E703F18043A3F53C331A6842F48022A0
:103050001A601A6842F480321A60D4E7FEF722FF41
:103060000546574B1B6813F4003FA2D0FEF71AFF2A
:10307000401B6428F5D903205FE1514B5B6813F4D2
:10308000803FA5D14E4B1B6813F0020F03D023697C
:10309000012B40F04F814A4A136823F0F80361691D
:1030A00043EAC1031360236813F0080F33D0A36908
:1030B000002B5CD0434B0122C3F88024FEF7F2FEC4
:1030C00005463F4B5B6A13F0020F21D1FEF7EAFE83
:1030D000401B0228F5D903202FE1394A136823F059
:1030E000F803616943EAC1031360DCE7354B002252
:1030F0001A60FEF7D7FE0546314B1B6813F0020F2E
:10310000D1D0FEF7CFFE401B0228F5D9032014E1F1
:103110000120FFF701FF236813F0040F00F09680F1
:10312000274BDB6913F0805F34D1254BDA6942F01D
:103130008052DA61DB6903F080530193019B012522
:10314000214B1B6813F4807F26D0E368012B3DD010
:10315000002B53D103F1804303F504331A6A22F0A4
:1031600001021A621A6A22F004021A6233E0154B55
:103170000022C3F88024FEF795FE0546104B5B6ADB
:1031800013F0020FC7D0FEF78DFE401B0228F5D9C1
:103190000320D2E00025D3E70B4A136843F4807381
:1031A0001360FEF77FFE0646074B1B6813F4807F13
:1031B000CBD1FEF777FE801B6428F5D90320BCE055
:1031C0000010024000004242007000405F4A136A53
:1031D00043F001031362E36833B3FEF763FE064670
:1031E0005A4B1B6A13F0020F2FD1FEF75BFE801BB8
:1031F00041F288339842F3D903209EE0052B09D091
:10320000524B1A6A22F001021A621A6A22F0040270
:103210001A62E0E74D4B1A6A42F004021A621A6A17
:1032200042F001021A62D6E7FEF73CFE0646474B23
:103230001B6A13F0020F08D0FEF734FE801B41F228
:1032400088339842F3D9032077E0E5B9E369002B8E
:1032500072D03E4A526802F00C02082A56D0022B65
:1032600017D03B4B00221A66FEF71CFE0446374B74
:103270001B6813F0007F47D0FEF714FE001B0228E6
:10328000F5D9032059E0314AD36923F08053D36143
:10329000DCE72F4B00221A66FEF704FE05462B4B97
:1032A0001B6813F0007F06D0FEF7FCFD401B0228D0
:1032B000F5D9032041E0236AB3F5803F1AD02349B2
:1032C0004B6823F47413226A606A024313434B6011
:1032D0001F4B01221A66FEF7E5FD04461B4B1B68D7
:1032E00013F0007F0ED1FEF7DDFD001B0228F5D99B
:1032F000032022E0154A536823F40033A1680B43EE
:103300005360DCE7002018E0002016E0012B16D007
:103310000E4B5B6803F48031226A914211D103F4B1
:103320007013626A93420ED1002006E001207047BC
:10333000012002E0012000E0002002B070BD012069
:10334000FBE70120F9E70120F7E700BF001002408A
:10335000000042420F4B5B6803F00C02082A01D0C8
:103360000D487047C3F383420C49885C13F4803FD7
:103370000BD0084B5B68C3F34043094AD35C064A51
:1033800002FB00F0B0FBF3F07047064B03FB00F0CC
:10339000704700BF0010024000127A0098A4000895
:1033A00094A4000800093D00002800F0A08070B53A
:1033B0000D460446524B1B6803F007038B420BD2A9
:1033C0004F4A136823F007030B431360136803F09D
:1033D00007038B4240F08D80236813F0020F17D053
:1033E00013F0040F04D0474A536843F4E06353607A
:1033F000236813F0080F04D0424A536843F4605323
:103400005360404A536823F0F003A1680B435360B4
:10341000236813F0010F31D06368012B20D0022BF9
:1034200025D0384A126812F0020F64D035494A6834
:1034300022F0030213434B60FEF734FD0646314B86
:103440005B6803F00C036268B3EB820F16D0FEF7E3
:1034500029FD801B41F288339842F0D9032045E0D2
:10346000284A126812F4003FE0D101203EE0254ACC
:10347000126812F0007FD9D1012037E0204B1B6881
:1034800003F00703AB420AD91D4A136823F0070370
:103490002B431360136803F00703AB422DD123685D
:1034A00013F0040F06D0174A536823F4E063E16871
:1034B0000B435360236813F0080F07D0114A536879
:1034C00023F46053216943EAC1035360FFF742FFCD
:1034D0000C4B5B68C3F303130B4AD35CD8400B4B14
:1034E00018600B4B1868FEF799FC002070BD012096
:1034F00070470120FAE70120F8E70120F6E700BF56
:10350000002002400010024084A400082000002097
:1035100028000020014B1868704700BF20000020E1
:1035200008B5FFF7F7FF044B5B68C3F30223034AB8
:10353000D35CD84008BD00BF001002407CA4000846
:1035400008B5FFF7E7FF044B5B68C3F3C223034AE8
:10355000D35CD84008BD00BF001002407CA4000826
:1035600070B582B00446036813F0010F36D03F4BAC
:10357000DB6913F0805F49D13C4BDA6942F080523D
:10358000DA61DB6903F080530193019B0125384B1D
:103590001B6813F4807F3BD0344B1B6A13F44073D9
:1035A00013D0626802F440729A420ED02F4A136A16
:1035B00023F440702F490126C1F840640026C1F869
:1035C0004064106213F0010F36D1284A136A23F4C5
:1035D000407361680B431362002D3ED1236813F0E2
:1035E000020F06D0214A536823F44043A1680B43DD
:1035F0005360236813F0100F34D01C4A536823F42F
:103600008003E1680B43536000202CE00025BEE7F7
:10361000174A136843F480731360FEF743FC0646B1
:10362000134B1B6813F4807FB6D1FEF73BFC801B65
:103630006428F5D9032016E0FEF734FC06460B4B50
:103640001B6A13F0020FC0D1FEF72CFC801B41F265
:1036500088339842F3D9032005E0D36923F08053DF
:10366000D361BBE7002002B070BD00BF0010024074
:10367000007000400000424208B502284ED01028D9
:1036800003D0012828D0002052E02B4B5A6818683C
:1036900010F080704CD0C2F383432849C85C12F408
:1036A000803F15D0244B5B68C3F34043244AD25C6F
:1036B000244BB3FBF2F303FB00F01F4B5B6813F4E6
:1036C000800F35D14000204BA3FB003040082FE095
:1036D0001E4B03FB00F0F0E7174B1B6A40F202326F
:1036E0001A40B2F5817F24D003F44073B3F5007F14
:1036F00004D0B3F5407F09D0002019E00E4A526A89
:1037000012F0020FF5D049F6404011E00A4B18685C
:1037100010F400300CD04FF2244009E0FFF710FF06
:10372000054B5B68C3F3813301335B00B0FBF3F0FF
:1037300008BD4FF40040FBE700100240ACA40008B5
:10374000A8A4000800127A00ABAAAAAA00093D00AA
:1037500010B4036A046A24F001040462846924F04A
:10376000F00C4CEA021223F00A030B43826103625D
:1037700010BC704730B4056A046A24F01004046277
:10378000846924F4407C4CEA022C2CF4704C1B031A
:103790009BB243EA0C0325F0A005090101F0A0014A
:1037A00029438361016230BC704710B4036A046A24
:1037B00024F010040462846924F4704C4CEA023250
:1037C00023F0A00343EA01138261036210BC704737
:1037D00030B4056A046A24F480740462C46924F075
:1037E000030C4CEA020C2CF0F00C1B01DBB243EA98
:1037F0000C0325F40075090201F400712943C3612B
:10380000016230BC704730B4056A046A24F4805405
:103810000462C46924F4407C4CEA022C2CF4704C01
:103820001B039BB243EA0C0325F40055090301F482
:1038300000512943C361016230BC7047836823F0A3
:1038400070030B4343F007038360704770470C29F4
:1038500014D8DFE801F0071313130A1313130D1321
:10386000131310000368586B70470368986B704718
:103870000368D86B70470368186C70470020704766
:10388000704770477047704770B504460368DE683C
:103890001D6915F0020F10D016F0020F0DD06FF059
:1038A00002021A610123037703689B6913F0030F77
:1038B0005ED0FEF77DF80023237715F0040F12D0B9
:1038C00016F0040F0FD023686FF004021A61022370
:1038D000237723689B6913F4407F4FD02046FEF77F
:1038E00067F80023237715F0080F12D016F0080FA1
:1038F0000FD023686FF008021A610423237723682E
:10390000DB6913F0030F40D02046FEF751F8002387
:10391000237715F0100F12D016F0100F0FD0236878
:103920006FF010021A61082323772368DB6913F410
:10393000407F31D02046FEF73BF80023237715F077
:10394000010F02D016F0010F2DD115F0800F02D01B
:1039500016F0800F2FD115F0400F02D016F0400F57
:1039600031D115F0200F02D016F0200F33D170BDE9
:10397000FFF787FF2046FFF785FF9CE72046FFF70C
:1039800080FF2046FFF77EFFABE72046FFF779FF79
:103990002046FFF777FFBAE72046FFF772FF204681
:1039A000FFF770FFC9E723686FF001021A61204634
:1039B000FFF766FFC9E723686FF080021A612046AF
:1039C00000F0B3FAC7E723686FF040021A6120469F
:1039D000FFF759FFC5E723686FF020021A61204600
:1039E00000F0A2FAC3E7000003681F4A90420AD021
:1039F000B0F1804F07D0A2F59432904203D002F587
:103A00008062904203D123F070034A681343164A40
:103A100090420AD0B0F1804F07D0A2F59432904284
:103A200003D002F58062904203D123F44073CA6848
:103A3000134323F080034A69134303608B68C36216
:103A40000B688362084B98420AD0012343610369E3
:103A500013F0010F03D0036923F0010303617047E2
:103A60000B690363F1E700BF002C014040B310B5C0
:103A7000044690F83D30F3B1022384F83D302146EE
:103A800051F8040BFFF7B0FF012384F8463084F8A7
:103A90003E3084F83F3084F8403084F8413084F878
:103AA000423084F8433084F8443084F8453084F858
:103AB0003D30002010BD80F83C30FEF753F9DBE7C5
:103AC0000120704740B310B5044690F83D30F3B183
:103AD000022384F83D30214651F8040BFFF784FFA0
:103AE000012384F8463084F83E3084F83F3084F86F
:103AF000403084F8413084F8423084F8433084F810
:103B0000443084F8453084F83D30002010BD80F802
:103B10003C30FFF79BFEDBE70120704770B4056A7D
:103B2000046A24F0010404628469114EB0420DD08D
:103B3000B0F1804F0AD0A6F59436B04206D006F513
:103B40008066B04202D044F0010202E024F0030497
:103B5000224322F0F0021B01DBB2134325F00A02DC
:103B600001F00A0111438361016270BC704700BF1C
:103B7000002C014038B590F83C30012B5ED0044653
:103B80000D46012380F83C300C2A52D8DFE802F0C1
:103B900007515151195151512C5151513E00CB688F
:103BA0004A6809680068FFF7B9FF2268936923F043
:103BB0000C03936122689369A9680B439361002009
:103BC00038E0CB684A6809680068FFF7D3FD2268CF
:103BD000936923F44063936122689369A96843EA77
:103BE00001239361002025E0CB684A6809680068DA
:103BF000FFF7EEFD2268D36923F00C03D36122683E
:103C0000D369A9680B43D361002013E0CB684A68ED
:103C100009680068FFF7F7FD2268D36923F4406361
:103C2000D3612268D369A96843EA0123D3610020E4
:103C300000E00120002384F83C3038BD0220FCE77E
:103C400010B4846824F47F4C42EA03220A4342EA17
:103C50000C02826010BC704790F83C30012B78D089
:103C600010B50446012380F83C30022380F83D3033
:103C70000268936823F47F4323F0770393600B6813
:103C8000602B4CD023D8402B54D011D8202B03D0FC
:103C90000AD80BB1102B05D119462068FFF7CEFDCD
:103CA000002028E0012026E0302BF5D0012022E082
:103CB000502B0AD1CA6849680068FFF749FD5021B6
:103CC0002068FFF7BBFD002015E0012013E0B3F5ED
:103CD000805F3AD0B3F5005F14D0702B37D1CB683A
:103CE0004A6889680068FFF7ABFF2268936843F071
:103CF000770393600020012384F83D30002384F88B
:103D00003C3010BDCB684A6889680068FFF798FFAF
:103D10002268936843F4804393600020EBE7CA680D
:103D200049680068FFF741FD60212068FFF786FDC4
:103D30000020E0E7CA6849680068FFF709FD4021F4
:103D40002068FFF77BFD0020D5E70020D3E70120A6
:103D5000D1E70220704701F01F014FF0010C0CFA6F
:103D600001FC036A23EA0C030362036A8A401343DB
:103D70000362704710B504460B46F1B990F83E0057
:103D8000C0B253BB94F84220D2B2012840F08E80DA
:103D9000012A40F08C8083BB022184F83E1084F815
:103DA00042100C2B00F28480DFE803F069828282EB
:103DB00041828282638282826F00042905D00829B1
:103DC00007D090F84100C0B2DBE790F83F00C0B2E6
:103DD000D7E790F84000C0B2D3E7042B05D0082BFA
:103DE00007D094F84520D2B2CFE794F84320D2B25E
:103DF000CBE794F84420D2B2C7E7042B0CD0082BB1
:103E00000ED0022184F84110042B0DD0082B2DD0A8
:103E1000022184F84510C4E7022184F83F10F3E73B
:103E2000022184F84010EFE7022284F84320216841
:103E3000CA6842F00402CA60012219462068FFF7EE
:103E40008AFF23681C4A934225D0B3F1804F22D0C9
:103E5000A2F5943293421ED002F5806293421AD0AA
:103E60001A6842F001021A60002020E0022284F861
:103E700044202168CA6842F00802CA60DCE7216871
:103E8000CA6842F00202CA60D6E72168CA6842F0F6
:103E90001002CA60D0E79A6802F00702062A09D029
:103EA0001A6842F001021A60002000E0012010BDF3
:103EB0001046FCE70020FAE7002C014090F83C2077
:103EC000012A2CD010B40346012280F83C200222A3
:103ED00080F83D2002685068946820F0700C0868F3
:103EE00040EA0C0050601A680E4882420AD0B2F1D3
:103EF000804F07D0A0F59430824203D000F5806057
:103F0000824204D124F08004496821439160012257
:103F100083F83D20002083F83C0010BC704702204D
:103F2000704700BF002C014070477047024A0349A8
:103F3000034800F0C9B800BF2C000020B16700089A
:103F4000400000200C4B416810B59942044601D056
:103F500002F02EFCA168094B994202D0204602F0E3
:103F600027FCE168064B994204D02046BDE810408A
:103F700002F01EBC10BD00BFBC0C0020240D0020B0
:103F80008C0D00202DE9F84300250423304C314AE4
:103F90003149DFF8C890DFF8C880324F324E1160E7
:103FA00004F15C0029460822C4E90335C4E9005540
:103FB000C4E90555A560656600F036F904F15800BE
:103FC000C4E90749C4E90987E66200F0FFF9274B15
:103FD0002946082204F1C4006367C4E91A55C4E9FC
:103FE0001E552567C4F8CC50C4F8805000F01CF969
:103FF00004F1680304F1C000C4F88430C4E92298D5
:10400000C4E9247600F0E2F9194B294604F59670CC
:104010000822C4F8DC30C4E93455C4E93855C4F882
:10402000D850C4F83451C4F8E85000F0FDF804F159
:10403000D003C4E93D87C4F8F09004F59470C4F847
:10404000FC60C4F8EC30BDE8F84300F0BFB900BF35
:10405000BC0C0020F40D00202D3F00089941000801
:10406000BD410008FD41000821420008090001008F
:104070001200020010B504460A4800F0ABF9636B69
:1040800023B9094B094A1B68626323B1BDE810409C
:10409000044800F0A1B9FFF775FFBDE810400148E2
:1040A00000F09AB9040E0020F40D0020453F0008EE
:1040B000014800F08FB900BF040E0020014800F055
:1040C0008BB900BF040E00202DE9F8434FF0000922
:1040D00080460F461646D6E90154013D10D4A38907
:1040E000012B08D9B4F90E30013304D021464046E3
:1040F000B84749EA0009013D6B1C04F16804EED1A0
:104100003668002EE7D14846BDE8F8830CB410B5F8
:10411000204B00291C689CB036DB4FF000034FF4A5
:1041200002721B934FF6FF7C02900690ADF81420AC
:104130001FAB16D001391E9A04910791204602A99F
:104140000193ADF816C000F071FD421C01DA8B231B
:1041500023600022029B1A701CB0BDE8104002B020
:1041600070470491079120461E9A02A90193ADF869
:1041700016C000F05BFD431C01DA8B2323601CB0EA
:10418000BDE8104002B070478B234FF0FF30236032
:10419000F5E700BF3800002010B50C46B1F90E104D
:1041A00000F0BAF8002803DB236D0344236510BD3B
:1041B000A38923F48053A38110BD00BF2DE9F041F2
:1041C0000C46B1F90C101F46CB05054616460BD41C
:1041D00021F48051A1813B4632462846B4F90E10A5
:1041E000BDE8F04100F0AEB8B4F90E100223002291
:1041F00000F07CF8B4F90C10EAE700BF10B50C46EB
:10420000B1F90E1000F072F8B4F90C30421C0EBF78
:1042100023F4805343F480532065A38110BD00BF75
:10422000B1F90E1000F050B870B5860747D0541E93
:10423000002A3ED00346CAB201E0013C39D303F85C
:10424000012B9D07F9D1032C2CD9CDB205EB052507
:104250000F2C1A4605EB054534D9A4F1100C2CF0AF
:104260000F0603F1100EB6444FEA1C1CC2E90055BC
:10427000C2E9025510327245F8D10CF1010214F076
:104280000C0F03EB021204F00F0C13D0ACF104037B
:1042900023F003030433134442F8045B9342FBD13D
:1042A0000CF003042CB1C9B21C4403F8011BA34257
:1042B000FBD170BD64461346002CF4D1F9E70346E8
:1042C0001446C0E7A446E1E7002238B5064D04468F
:1042D00008462A60FDF7B6FC431C00D038BD2B68A9
:1042E000002BFBD0236038BDF80D002038B50C46FC
:1042F000114600228446074D20462A601A4664462D
:10430000FDF7AAFC431C00D038BD2B68002BFBD066
:10431000236038BDF80D002038B50C461146002248
:104320008446074D20462A601A466446FDF76CFC19
:10433000431C00D038BD2B68002BFBD0236038BD58
:10434000F80D002038B50C46114600228446074D72
:1043500020462A601A466446FDF766FC431C00D0DE
:1043600038BD2B68002BFBD0236038BDF80D002032
:10437000014B1868704700BF3800002070B50F4B24
:104380000F4DAB42A3EB050607D00024B61055F83D
:10439000043B01349847A642F9D805F05DFE094D6B
:1043A000094B5E1BAB424FEAA60606D0002455F827
:1043B000043B01349847A642F9D870BD04A7000811
:1043C00004A7000804A700080CA70008704700BF56
:1043D000704700BF704700BF704700BF024B13B16A
:1043E000024800F005B8704700000000916A00081C
:1043F000002301461A46184602F01CBC2DE9F8437A
:1044000006460820894602F057FB0546DFF89880EB
:10441000304600F0FFFBD8F808305F6827F003074C
:10442000A7F11104A4EB09042C44B4FBF5F4013CFE
:1044300005FB04F4A54208DC0021304602F016FB1F
:10444000D8F808303B44984205D0304600F0E8FBED
:104450000020BDE8F8833046614202F007FB0130DE
:104460000FD0124AD8F808303F1B47F001075F60B1
:10447000136830461B1B136000F0D2FB0120BDE81F
:10448000F8830021304602F0F1FAD8F80820831AA8
:104490000F2BDADD43F001035360054B03491B6822
:1044A000C01A0860D1E700BF900100200C0E002068
:1044B0008401002000297CD0F8B50C46064600F0A7
:1044C000A9FB54F8043C764FA4F1080523F0010140
:1044D0006818D7F808C04268844522F0030200F04B
:1044E0008380DB07426000EB020C33D454F8084CA5
:1044F000DCF804302D1B2144AC6807F1080C64453E
:1045000003F0010364D0D5F80CE0C4F80CE0CEF859
:104510000840002B00F0818041F001036B600160D6
:10452000B1F5007F22D20122CB0849098A4079687F
:1045300001330A437A6057F8331007EBC302083A95
:10454000C5E9021247F83350CD603046BDE8F84067
:1045500000F066BBDCF80430DB072BD541F001032B
:10456000B1F5007F44F8043C0160DCD3B1F5206F65
:104570004FEA512353D28B0903F1390003F138027A
:10458000C300F818FB580838984203D161E09B68D3
:10459000984204D05A6822F003028A42F7D8D868B9
:1045A000C5E9023085603046DD60BDE8F84000F0C6
:1045B00037BB7047114407F1080C836863453FD04F
:1045C000C268DA60936041F001036B606950A7E74D
:1045D000002B5FD10A44D0E90213CB60996042F00E
:1045E00001036B60AA50B0E70A44D90707D454F816
:1045F000083CED1A1A44D5E90213CB60996042F0E9
:1046000001036B60274BBD601B6893429DD8264B0E
:1046100030461968FFF7F2FE97E71144CDE7142BF7
:1046200008D9542B1DD80B0B03F16F0003F16E0258
:10463000C300A6E703F15C0003F15B02C300A0E73F
:1046400041F00103C7E90455C5E902CC6B6069502C
:104650007BE70121921001FA02F279680A437A603D
:104660009EE7B3F5AA7F06D8CB0B03F1780003F1E0
:104670007702C30085E740F25452934206D88B0C70
:1046800003F17D0003F17C02C3007AE74FF47E73EF
:104690007E2276E741F001036B60016055E700BFC1
:1046A00090010020880100203C0E00202DE9F04FF1
:1046B00001F10B05162D064683B024D8102900F20F
:1046C000AD8000F0A7FA102518234FF0020CB84F68
:1046D0003B445C68A3F10802944200F01D8130461F
:1046E0006368E268A16823F00303CA602344916011
:1046F0005A68083442F001025A6000F091FA2046EC
:1047000003B0BDE8F08F35F0070500F18780A942BE
:1047100000F2848000F07EFAB5F5FC7FC0F06F8176
:104720006B0A7FD0042B00F21E81AB0903F1390C18
:1047300003F1380E4FEACC009D4F384444680838E6
:10474000A04207D10DE0002AE16880F2DF808842B4
:1047500007D00C46636823F003035A1B0F2AF2DDCF
:10476000F446DFF850823C69444500F0BC80636841
:1047700023F00309A9EB05030F2B00F34581002B60
:10478000C7E9048880F22F81B9F5007FD7F804E0EB
:1047900080F0C98001234FEAD9014FEA5919194421
:1047A00003FA09F357F831204EEA030E07EBC10371
:1047B000083BA260E360C7F804E047F83140D460EA
:1047C00001204FEAAC039840704532D810EA0E0F32
:1047D00007D12CF0030C400010EA0E0F0CF1040C72
:1047E000F9D007EBCC0AD646E146DEF80C300BE0F8
:1047F00059681C4621F003014A1B0F2ADB6800F3AD
:10480000BF80002A80F2E2809E45F1D109F10109C2
:1048100019F0030F0EF1080EE7D11FE10C233360EE
:1048200000246CE74FF400704FF0400C4FF03F0E47
:1048300082E7BC68636823F00309A94503D3A9EBA9
:1048400005030F2B52DC5C4B08201B6803F110089A
:1048500004EB0903009302F02FF9584A83461368CA
:10486000A844013305D008F1FF388044434203EAED
:1048700008084146304602F0F9F8B0F1FF3F8246A1
:104880004E4A00F0DC8004EB0903834200F2D5803D
:104890004B4B0BF1FF31186840448446186040F0E0
:1048A000FB801AEA010F40F0F780D7F808A0C8444F
:1048B00048F00102CAF804205446424B196881426C
:1048C00038BF1860404B1968814238BF186022F029
:1048D0000308A845A8EB050301D30F2B06DC3046DF
:1048E00000F09EF99CE7D7F804E069E7621943F00D
:1048F000010345F0010565603046BA600834536035
:1049000000F08EF9204603B0BDE8F08FA268304673
:10491000D16023448A60EBE6DC68A3427FF4DFAE1B
:104920000CF1020C1DE7B9F5206F4FEA59227DD337
:10493000142A00F2118102F15C03DB005B32F918EA
:10494000FB580839994203D1ECE09B68994204D0A6
:104950005A6822F003024A45F7D8D968C4E90231FF
:104960008C60DC602CE7142B6CD9542B00F2FD809A
:104970002B0B03F16F0C03F16E0E4FEACC00DBE65C
:10498000D4F808C03046661945F001056560CCF8DA
:104990000C30C3F808C042F00103C7E90466C6E959
:1049A00002887360625000F03BF90834A7E600BF4C
:1049B00090010020980100203C0E0020840100207E
:1049C0000C0E0020380E0020340E002021444A68CE
:1049D000304642F001024A6054F8082FD3609A60D2
:1049E00000F01EF98BE6A144D9F80430304643F0BC
:1049F0000103C9F8043000F013F908347FE64FEAE8
:104A0000D50C05F1080362E6621943F0010145F097
:104A1000010565603046C7E90422C2E90288516099
:104A200044F8093000F0FCF8083468E64FEA9912BF
:104A300002F13903DB00383281E7BC4224D0BC6884
:104A4000626844E703F15C0C03F15B0E4FEACC00B3
:104A500072E65AF80839534540F0D8801CF0030F2D
:104A60000CF1FF3CF5D17B6823EA00037B6040003A
:104A700098423FF6DEAE18B9DBE6400009F10409C2
:104A80001842FAD0CC46ACE6614B0BF1FF31186806
:104A900008EB000CC3F800C01068013070D004EBC4
:104AA0000902AAEB020262441A601AF00702CDE979
:104AB000002340D0C2F108029244D04408EA010029
:104AC0005A44121A02EA010B5946304601F0CEFF51
:104AD000421C019B71D0A0EB0A0000EB0B08186888
:104AE00048F001025844BC42C7F808A01860CAF850
:104AF00004203FF4E1AEB9F10F0F44D94FF0050C9B
:104B00006168A9F10C0222F0070201F001011143D2
:104B100061600F2A04EB0201C1E901CC55D8DAF833
:104B20000420C9E60120921000FA02F24EEA020EB9
:104B3000C7F804E012E70AEB08020A40ABEB0202F6
:104B400002EA010B5946304601F090FF431C019BDD
:104B5000C1D1DDF800B0C2E7542A18D84FEA1932A3
:104B600002F16F03DB006E32E9E6B3F5AA7F18D8D5
:104B7000EB0B03F1780C03F1770E4FEACC00DBE589
:104B8000C2F800A091E70123CAF80430A7E6B2F505
:104B9000AA7F25D84FEAD93202F17803DB007732B9
:104BA000CDE640F25452934225D8AB0C03F17D0C74
:104BB00003F17C0E4FEACC00BEE5009A4FF0000BEB
:104BC000083A9044A8EB0A0889E7304604F1080146
:104BD0000093FFF76FFC009BD7F808A018689EE7CA
:104BE00040F254539A420DD84FEA994202F17D03A4
:104BF000DB007C32A3E64FF47E704FF07F0C4FF069
:104C00007E0E99E54FF47E737E2298E67B682EE750
:104C10000C0E00200148FFF7DDBB00BFFC0D00209B
:104C20000148FFF7D9BB00BFFC0D00202DE9F04F74
:104C3000DDB00C4691460D910F93834601F012FFB3
:104C4000036818461A9301F091FF0822189000217A
:104C50002CA8FFF7E9FAA389180603D52369002BCE
:104C600000F01587002300249E46CDE93133002350
:104C700033AACDE91634DA4614464D46CDE91BEE8B
:104C80003092CDF864E0CDF880E0CDF874E0CDF856
:104C900028E0CDF848E02F466E4BD3F8E46001F0F1
:104CA000DBFE0DF1B00C03463A46504628A9CDF87C
:104CB00000C0B047002800F09F80C0F29580289B7C
:104CC000252B01D00744E7E7B7EB0508064640F07F
:104CD000978000224FF0FF33934609937B787E1C28
:104CE0008DF897200B9299460136A9F120035A2B93
:104CF00000F2B280DFE813F0F302B000B000EF0280
:104D0000B000B000B000FD02B000B0006A00350293
:104D1000B0002702D202B000CE025B005B005B0055
:104D20005B005B005B005B005B005B00B000B00001
:104D3000B000B000B000B000B0002801B000AA017F
:104D40003E02280128012801B000B000B000B000E8
:104D50003A02B000B000A802B000B000B000D0012C
:104D6000B000BC02B000B0008A06B000B000B000D5
:104D7000B000B000B000B000B0002801B000AA013F
:104D800001022801280128012B0201027400B00051
:104D90006402B0005502AF066E027400B000D0018C
:104DA0007200AC06B000B000B206B0007200002283
:104DB000A9F1300316F8019B02EB820203EB4202D9
:104DC000A9F13003092BF5D90B928EE70F9B53F80D
:104DD000042B002A0B920F93C0F2B281337882E742
:104DE00033784BF0200B7EE7082200212CA8FFF738
:104DF0001BFA012007444FE7B7EB0508064610D021
:104E0000329BC4E9005843443293319B0133072B52
:104E1000319315DC08340A9B43440A93002E7FF437
:104E200058AF329B002B41F05E810D9B9B8903F0B4
:104E30004003002B41F080830A985DB0BDE8F08FFD
:104E400050460D9930AA01F087FC0028EDD133AC13
:104E5000E1E700BF980500201096B9F1000FE0D0FF
:104E6000012300228DF80C91069343AD8DF8972015
:104E70000C93CDE913220E92099211921BF00203BA
:104E800002D00699023106911BF08408329E05D1AA
:104E90000B9906980F1A002F00F39B806AB101222C
:104EA0006260319A013601320DF19701072A32967C
:104EB0003192216000F3D883083463B10223636028
:104EC000319B0236013326AA072B3296319322609A
:104ED00000F3BF830834B8F1800F00F0BF82099B54
:104EE0000C9A9F1A002F00F3F9821BF4807F40F088
:104EF0001E820C9B25601E446360319B32960133F9
:104F0000072B319300F33F8308341BF0040F05D0C7
:104F10000B9B069A9D1A002D00F3B383DDE90A323C
:104F200006998A42ACBF9B185B180A93002E40F08A
:104F30000883002331930E9B1BB150460E99FFF757
:104F4000B9FA33AC109DA6E60F9B1096073323F0F9
:104F50000703F3E802670F9327F000431F931E96A1
:104F60004FF0FF32DDE91E01B24BCDE91667FCF7C9
:104F700097F8002840F0F484DDE91E014FF0FF327D
:104F8000AC4BFCF76FF8002840F0EA8400220023C5
:104F900030463946FCF75CF8002840F0B2879DF8AF
:104FA000972000210320A44DA44B2BF0800B0E91E1
:104FB0000690B9F1470FD8BF1D46CDE913110991ED
:104FC0000C901191002A3FF459AF069B01330693D0
:104FD00054E7102F319A41F30D82DFF864C2214665
:104FE00030460D9C2E46CDF854C06546219304E012
:104FF000103F102F01F1080116DD1023013210308F
:10500000072ACDE931200D604B60F1DD2146504685
:1050100030AA01F0A1FB002840F09B82DDE931209D
:10502000103F102F33A9E8DC35460C460646219B7D
:10503000013215993E44072ACDE931262160676087
:1050400000F381869DF89720083427E70F9BB9F17C
:10505000430F109603F1040603D01BF0100F00F06D
:105060000185082200212EA8FFF7DEF80F9A43AD34
:105070002EAB29465046126803F0E4F9034601338B
:105080000C9001F054820C9B23EAE37306930022F8
:105090000F968DF89720ECE600230F9F109657F897
:1050A000045B8DF89730002D00F00085B9F1530FA7
:1050B00000F094861BF01003119340F08F86099B3B
:1050C000002BC1F21B801A462846119901F002FDFF
:1050D0000E90002801F081820E9B11995B1B0C93AE
:1050E00023EAE3734FF07309CDE913119DF897207C
:1050F0000F97099106930E9164E71BF0200F10960D
:105100003ED00F9B073323F007031846596850F829
:10511000083B0A460F900029C0F2CA83099900296A
:10512000C0F2888253EA02012BF0800740F08382AC
:10513000099A002A40F08482BB460C925CAD64E17F
:105140000B9B5B420B9333784BF0040BCBE533782E
:10515000682B03BF73784BF4007B01364BF0400B98
:10516000C1E52B238DF897303378BCE533784BF0CD
:10517000080BB8E54BF0100B1BF0200F1096C0D1B8
:105180000F9A1BF0100F52F8043B0F9240F0C283AD
:105190001BF0400F00F0BA8343F3C03211461BB23C
:1051A000B9E71BF0200F109600F0C5830F9B0A9AF9
:1051B0001B681A60D2175A600F9B04330F93C1E625
:1051C00033786C2B03BF73784BF0200B01364BF018
:1051D000100B88E547F630030F9AADF8983052F877
:1051E000043B02210F924FF07809002215481096D7
:1051F0004BF0020719900020099D8DF89700002DB3
:10520000C0F2EC8053EA020027F0800B40F0E5800A
:10521000002D40F0D285002940F0538317F00103A0
:105220000C9300F0718330230DF26F158DF86F3100
:10523000EBE000BFFFFFEF7FD8A20008D4A2000878
:10524000CCA40008E4A2000810964BF0100B1BF051
:10525000200200F012830F9B073323F00703194647
:105260005A6851F8083B0F9100212BF48067C2E780
:1052700010964BF0100717F0200200F00B830F9BE5
:105280000121073323F0070318465A6850F8083BFA
:105290000F90B0E733784BF0800B24E5314611F8DE
:1052A000019BB9F12A0F01F02882A9F13003092BE3
:1052B00098BF002201F2A28011F8019B02EB82024A
:1052C00003EB4202A9F13003092BF5D942EAE2735C
:1052D0000E46099309E533784BF0010B03E59DF881
:1052E00097203378002A7FF4FEAC20228DF8972097
:1052F000F9E4504601F0B6FB436818461D9301F0EF
:1053000035FC20900746504601F0ACFB83681B93A8
:10531000002F3FF463AD1B9A3378002A3FF4E3ACCF
:105320001278002A3FF4DFAC4BF4806BDBE4B9F178
:10533000650F40F33781DDE9160100220023FBF7FA
:105340007DFE002800F0D88101236360319B934AE1
:1053500001330136072B32963193226000F33285F8
:105360000834279B129A934280F2C982189B1A9A9A
:105370001E44C4E90023319B32960133072B31933D
:1053800000F37A830834129B5D1E002D7FF7BDADBC
:10539000102D319B40F3EB80DFF804921027DDF8ED
:1053A0003480CDF8549004E00834103D102D40F3C3
:1053B000E08001331036072BC4E90097CDE9313680
:1053C000F2DD4146504630AA01F0C6F9002840F00F
:1053D000C080DDE9313633ACE7E75F46012900F0F4
:1053E0002A8102295CAD1ED1199803F00F01415C9E
:1053F0001B0943EA0273120905F8011D53EA020171
:10540000F3D1BB465CAB5B1B0C93099A0C99002350
:105410008A42B8BF0A46CDE9133306920E939DF82F
:1054200097201193CEE503F00701DB0843EA4273AE
:10543000D208303153EA0206284605F8011DF2D1A0
:10544000FB07DED53029DCD03023023805F8013CDB
:105450005CAB1B1ABB4605460C93D6E70B9B069A22
:105460009F1A002F7FF73BAD102F319B41F35B80DC
:105470004B48224631464FF0100806460D9C1590C9
:1054800004E0103F102F02F1080214DD0133103147
:10549000072BC2E90068CDE93131F2DD21465046E3
:1054A00030AA01F059F9002853D1DDE93131103F1C
:1054B000102F33AAEADC14460E460133159A3E44F7
:1054C000072BCDE931362260676000F3C084099B69
:1054D0000C9A08349F1A002F7FF707AD304A102F1F
:1054E000319B159221DD32464FF010082E460D9D5E
:1054F00004E0103F102F04F1080414DD01332849A3
:105500001032072BC4E90018CDE93132F1DD29460C
:10551000504630AA01F020F9D8B9DDE93132103F08
:10552000102F33ACEADC354616460133159A3E445B
:10553000072BCDE931362260676000F39281083491
:10554000D3E450460D9930AA01F006F900283FF443
:10555000F0ACD3460E9B002B3FF467AC58460E9937
:10556000FEF7A8FF0D9B9B8903F0400361E40C4A02
:105570001592159A01332E44072B22606560CDE900
:1055800031367FF7C1AC50460D9930AA01F0E4F8EE
:105590000028DED1329E33ACB7E400BF14A300086C
:1055A000BCA40008129B319F012B06F1010607F1F4
:1055B000010704F1080940F310810123072FCDE909
:1055C00031762560636000F38081189B01371A9A59
:1055D0001E44072FC9E90023CDE9317600F382810B
:1055E00009F10809129B0022DDE916015C1E002367
:1055F000FBF724FD002840F00981013701352644DE
:10560000072FCDE93176C9F80050C9F8044000F3FE
:10561000F08009F108091C9B01371E44C9F80430C9
:10562000072F2AABCDE93176C9F80030ABDC09F1A0
:1056300008046AE45F460A2B72F1000180F02583BA
:1056400030338DF86F310123BB460C930DF26F158B
:10565000DBE650460D9930AA01F07EF800287FF471
:1056600078AF329E33AC36E450460D9930AA15938C
:1056700001F072F800287FF46CAF329E159B33ACBA
:105680001BE4102D319B40F33187DFF8CC821027CB
:10569000DDF83490CDF8548004E0103D102D04F175
:1056A000080415DD01331036072BC4E90087CDE966
:1056B0003136F2DD4946504630AA01F04DF8002857
:1056C0007FF447AFDDE93136103D102D33ACE9DC16
:1056D0000133159A2E44072BC4E90025CDE9313654
:1056E0007FF71CAC50460D9930AA01F035F8002820
:1056F0007FF42FAF329E11E42799002940F33383C2
:10570000DDE911839845A8BF9846B8F1000F0ADD7E
:10571000319B46440133072BC4E90058329631933C
:1057200000F33E860834119FB8F1000FA8BFA7EB25
:105730000807002F00F3CB81DDF844901BF4806F45
:10574000A94440F0EA81279B129A9342C0F27182E9
:105750001BF0010F40F06D82129AAF18A7EB0907FA
:10576000D51AAF42A8BF2F46002F0BDD319B3E4418
:105770000133072BC4F8009067603296319300F331
:1057800085860834002FA8BFED1B002D7FF7BDAB29
:10579000102D319B7FF7EBAEDFF8C0911027DDF8BD
:1057A0003480CDF8549004E00834103D102D7FF77C
:1057B000E0AE01331036072BC4E90097CDE931364E
:1057C000F2DD4146504630AA00F0C6FF00287FF4C3
:1057D000C0AEDDE9313633ACE7E71BF0010F7FF4F3
:1057E000ECAE0123072FCDE93176256063607FF7AA
:1057F00012AF50460D9930AA00F0AEFF00287FF49A
:10580000A8AEDDE931760DF1CC0904E7129B012B3E
:105810007FF701AF112B40F37F87504BCDF824B0B9
:1058200010259B46DDF83480159305E009F1080941
:10583000103C102C40F33C8301371036072FC9E988
:1058400000B5CDE93176F1DD4146504630AA00F091
:1058500083FF00287FF47DAEDDE931760DF1CC09C0
:10586000E6E750460D9930AA00F076FF00287FF455
:1058700070AE329E33ACFFF738BB0F991BF01000AF
:1058800051F8043B55D11BF040054ED002460F9114
:105890009BB2E9E40F9917F0100051F8043B41D195
:1058A00017F040053AD00F91024601219BB2A2E4C5
:1058B0005B425F464FF02D004FF0010162EB420268
:1058C0009AE4099B5CAD0C939FE550460D9930AA74
:1058D00000F042FF00287FF43CAEDDE931760DF1A7
:1058E000CC0972E650460D9930AA00F035FF002829
:1058F0007FF42FAEDDE931760DF1CC0972E61BF0B5
:10590000010F3FF402AB31E55CAD7EE51BF4007F97
:1059100040F04F83DA171146FFF7FDBB17F4007212
:1059200040F052830F91012165E41BF4007240F0B6
:1059300046830F9198E41BF0100F40F094821BF007
:10594000400F40F0CA831BF4007F00F08C820F9B55
:105950000A9A1B681A702FE4CCA40008BCA40008A3
:10596000DDE9160102460B46FBF79AFB002840F0E2
:105970001C86B9F1610F00F01F85B9F1410F00F0ED
:105980004A85099B013300F0EF8329F02003472B60
:1059900000F0E1850E90DDE91612002A13464BF463
:1059A0008078C0F2E68400231593DDE91623CDE963
:1059B0002223A9F14103252B00F20E83DFE813F027
:1059C00018040C030C030C03D803A5040C030C03EC
:1059D0000C030C030C030C030C030C030C030C034F
:1059E0000C030C030C030C030C030C030C030C033F
:1059F0000C030C030C030C030C030C030C030C032F
:105A000018040C030C030C03D803A504A64B109632
:105A100019931BF0200200F01A810F9B073323F02B
:105A2000070319465A6851F8083B0F911BF0010F04
:105A300009D053EA020106D030218DF899904BF03D
:105A4000020B8DF8981002212BF48067FFF7D3BB6F
:105A50005F4610960FE41096FFF7F9BB934B109634
:105A60001993D6E70F9B43AD1B688DF80C310123CA
:105A700006930C93FFF70BBB50460D9930AA00F02C
:105A80006BFE00287FF465AD329E33AC7BE4402191
:105A90005846FEF70BFE0D9B18601861002800F0B9
:105AA0003F8640230D9A5361FFF7DCB8099B2946D6
:105AB000062B28BF06232A4609950E95CDE913111A
:105AC0007B4D06930F970C931191FFF77BBA102F24
:105AD000319B40F31D86774932464FF010090E4640
